:1001D800D205C204D200C202C20112049ED2E84370
:1001E800D820907FAB74FFF0907FA9F0907FAAF0A1
:1001F8005391EF907F95E044C0F0907FAFE04401C9
:10020800F0907FAEE0441DF0D2AF20014C75240081
:100218007523007522007521007F487E927D007C41
:1002280000AB24AA23A922A821C3120A4D502020DA
:10023800011D7A0079007800E5242401F524EA35C7
:1002480023F523E93522F522E83521F52180CA2056
:1002580001B8D20612067B80B130010512028CC2A9
:100268000130041A1204BA501312065A20000790DB
:100278007FD6E020E7F31206401204C3C20412043A
:03028800B980D664
:01028B002250
:10028C00907FE9E070030203611470030203DC2425
:10029C00FE700302043524FB700302035B1470032D
:1002AC0002035514700302034914700302034F2414
:1002BC000560030204871204C54003020492907F78
:1002CC00EBE024FE601614603F240270677401900A
:1002DC007FD4F07400907FD5F0020492907FEAE016
:1002EC00FF1208838B258A268927EA496011AE0202
:1002FC00EE907FD4F0AF01EF907FD5F00204929096
:10030C007FC47401F0020492907FEAE0FF1208426D
:10031C008B258A268927EA496011AE02EE907FD49C
:10032C00F0AF01EF907FD5F0020492907FC474017E
:10033C00F0020492907FC47401F00204921204E55E
:10034C000204921204DD0204921204C702049212F7
:10035C0004CF0204921204F34003020492907FE84B
:10036C00E0247F60241460312402705BA200E4332B
:10037C00FF25E0FFA202E4334F907F00F0E4A3F0EE
:10038C00907FB57402F0020492E4907F00F0A3F029
:10039C00907FB57402F0020492907FECE0F45480EC
:1003AC00FFC4540FFFE054072F25E024B4F582E47A
:1003BC00347FF583E054FD907F00F0E4A3F0907F50
:1003CC00B57402F0020492907FC47401F00204929E
:1003DC001204F54003020492907FE8E024FE601CB6
:1003EC0024026003020492907FEAE0B40105C2008B
:1003FC00020492907FC47401F0020492907FEAE0B0
:10040C00701F907FECE0F45480FFC4540FFFE05455
:10041C00072F25E024B4F582E4347FF583E4F080E3
:10042C0065907FC47401F0805D1205195058907F5F
:10043C00E8E024FE60172402704C907FEAE0B401DF
:10044C0004D2008041907FC47401F08039907FEA1F
:10045C00E07020907FECE0F45480FFC4540FFFE078
:10046C0054072F25E024B4F582E4347FF58374011E
:10047C00F08013907FC47401F0800B12054B500672
:0D048C00907FC47401F0907FB4E04402F052
:010499002240
:0300330002049A2A
:04049A0053D8EF3212
:10010000120100010000004047052E10010001020D
:10011000050109021200010103A00009040000000A
:10012000FF0000040000040309042A0357006100D3
:100130006C0074006500720020004F006E006500C6
:100140007900200053006F006600740077006100A2
:10015000720065001E0346006500610074007500B2
:1001600072006500200044006500760069006300AD
:1001700065002E035300740061006E00640061008E
:1001800072006400200043006F006E00660069008A
:100190006700750072006100740069006F006E00F6
:1001A00026035300740061006E0064006100720059
:1001B0006400200049006E00740065007200660053
:1001C0006100630065001203300036003000390022
:0801D00030003000340035005E
:10062000500802C0F9A4B0999282F880988883C6D5
:0F063000A1868E0113000111000114000110FFBB
:10049E00900800747FF0907FDE7404F01206A07F47
:0A04AE00217D017A087B001208EEA0
:0104B8002221
:0104B9002220
:0904BA00907FAFE04408F0D3226A
:0204C300D32242
:0204C500D32240
:0804C700907FEAE0F515D32255
:0E04CF00907F00E515F0907FB57401F0D32208
:0804DD00907FEAE0F512D32242
:0E04E500907F00E512F0907FB57401F0D322F5
:0204F300D32212
:1004F500900801747FF0907FE8E0B40108907FEAEE
:10050500E0642A6002D3227F217D017A087B0112F3
:0305150008EEC32A
:0105180022C0
:10051900907FE8E0B40108907FEAE0642A6002D3A2
:10052900220510E510D394094003E4F5107F217DDD
:100539000174022510F582E43408AB82FA1208EE40
:01054900C3EE
:01054A00228E
:02054B00D322B9
:10054D00C0E0C083C082C085C084C086758600D2DD
:10055D00015391EF907FAB7401F0D086D084D0859C
:07056D00D082D083D0E03200
:10057400C0E0C083C082C085C084C086758600E4A4
:10058400907FC4F05391EF907FAB7404F0D086D089
:0A05940084D085D082D083D0E032FD
:10059E00C0E0C083C082C085C084C086758600530B
:1005AE0091EF907FAB7402F0D086D084D085D0824C
:0505BE00D083D0E03203
:1005C300C0E0C083C082C085C084C08675860053E6
:1005D30091EF907FAB7410F0D086D084D085D08219
:0505E300D083D0E032DE
:0105E80032E0
:1005E900C0E0C083C082C085C084C086758600D241
:1005F900045391EF907FAB7408F0D086D084D085F6
:07060900D082D083D0E03263
:0106100032B7
:0106110032B6
:0106120032B5
:0106130032B4
:0106140032B3
:0106150032B2
:0106160032B1
:0106170032B0
:0106180032AF
:0106190032AE
:01061A0032AD
:01061B0032AC
:01061C0032AB
:01061D0032AA
:01061E0032A9
:01061F0032A8
:03004300020700B1
:1007000002054D0002059E00020574000205E90085
:100710000205C3000205E8000206100002061100EF
:10072000020612000206130002061400020615005B
:10073000020616000206170002061800020619003B
:1007400002061A0002061B0002061C0002061D001B
:0807500002061E0002061F0054
:10064000907FD6E030E712E04401F07F147E001284
:0A065000090A907FD6E054FEF02264
:10065A00907FD6E04480F04387010000000000222A
:10067B00907FD6E054FBF0E04408F0300604E044F1
:10068B0002F07FDC7E0512090A907FD6E054F7F06A
:05069B00E04404F02220
:0806A000E4F51BD2E9D2AF2200
:1006A800A907E51B7023907FA5E04480F0E925E0C9
:1006B800907FA6F08D16AF03A9077517018A1889D0
:0B06C80019E4F51A751B01D322C322B0
:1006D300A907E51B7025907FA5E04480F0E925E09C
:1006E3004401907FA6F08D16AF03A9077517018A01
:0D06F300188919E4F51A751B03D322C322E0
:03004B0002075851
:10075800C0E0C083C082C085C084C086758600C0E2
:10076800D0C000C001C002C003C006C007907FA56A
:10077800E030E206751B06020824907FA5E020E120
:100788000CE51B64026006751B07020824AF1BEF0B
:1007980024FE604814602C24FE6077240460030261
:1007A8000824AB17AA18A919AF1A051A8F827583DE
:1007B800001209C6907FA6F0E51A6516705E751BD3
:1007C800058059907FA6E0AB17AA18A919AE1A8E12
:1007D800827583001209F3751B028040E51624FE1A
:1007E800B51A07907FA5E04420F0E51614B51A0A5B
:1007F800907FA5E04440F0E4F51B907FA6E0AB179E
:10080800AA18A919AE1A8E827583001209F3051A5F
:10081800800A907FA5E04440F0E4F51B5391DFD0B7
:1008280007D006D003D002D001D000D0D0D086D0D7
:0A08380084D085D082D083D0E03256
:020842008F28FD
:10084400E4F529752AFF752B01752C26AB2AAA2BF2
:10085400A92C9000011209C6B4031DAF290529EF84
:10086400B52801221209AD7E0029FFEE3AA90775C9
:0E0874002AFFF52B892C80D47B007A007900B6
:010882002253
:10088300E4FE752AFF752B01752C12AB2AAA2BA93E
:100893002C9000011209C66402702DAD060EEDB551
:1008A300070122900002120A1585F028F529622813
:1008B300E5286229E529622829FDE5283AA9057575
:0E08C3002AFFF52B892C80C37B007A00790078
:0108D1002204
:1008D2001206D3E51B24FA600E146006240770F397
:0C08E200D322E4F51BD322E4F51BD32243
:1008EE001206A8E51B24FA600E146006240770F3A6
:0C08FE00D322E4F51BD322E4F51BD32227
:10090A008E258F26E5261526AE25700215254E6002
:07091A000512066A80EE22BF
:10066A007400F58690FDA57C05A3E582458370F9A3
:01067A00225D
:03000000020921D1
:0C092100787FE4F6D8FD75812C0209688F
:1009AD00BB010689828A83E0225002E722BBFE0248
:0909BD00E32289828A83E493227B
:1009C600BB010CE58229F582E5833AF583E02250E6
:1009D60006E92582F8E622BBFE06E92582F8E22230
:0D09E600E58229F582E5833AF583E493224A
:1009F300F8BB010DE58229F582E5833AF583E8F03A
:100A0300225006E92582C8F622BBFE05E92582C8E5
:020A1300F222CD
:100A1500BB0110E58229F582E5833AF583E0F5F01F
:100A2500A3E0225009E92582F886F008E622BBFEFC
:100A35000AE92582F8E2F5F008E222E5832AF58342
:080A4500E993F5F0A3E9932207
:100A4D00EB9FF5F0EA9E42F0E99D42F0E89C45F0FF
:010A5D002276
:10092D000201D8E493A3F8E493A34003F68001F207
:10093D0008DFF48029E493A3F85407240CC8C333CB
:10094D00C4540F4420C8834004F456800146F6DF9A
:10095D00E4800B0102040810204080900620E47E04
:10096D00019360BCA3FF543F30E509541FFEE4938F
:10097D00A360010ECF54C025E060A840B8E493A356
:10098D00FAE493A3F8E493A3C8C582C8CAC583CA81
:10099D00F0A3C8C582C8CAC583CADFE9DEE780BE39
:01063F0000BA
:00000001FF
