:1001E600D205C204D200C202C2011204ACD2E84354
:1001F600D820907FAB74FFF0907FA9F0907FAAF093
:100206005391EF907F95E044C0F0907FAFE04401BA
:10021600F0907FAEE0441DF0D2AF20014C75240073
:100226007523007522007521007F487E927D007C33
:1002360000AB24AA23A922A821C31208C350202058
:10024600011D7A0079007800E5242401F524EA35B9
:1002560023F523E93522F522E83521F52180CA2048
:1002660001B8D20612077980B130010512029AC28E
:100276000130041A1205BF501312075820000790C8
:100286007FD6E020E7F31206D31205C8C204120493
:03029600E380D62C
:010299002242
:10029A00907FE9E0700302036F1470030203EA24FB
:1002AA00FE700302044324FB700302036914700303
:1002BA0002036314700302035714700302035D24DC
:1002CA000560030204951205CA40030204A0907F48
:1002DA00EBE024FE601614603F24027067740190FC
:1002EA007FD4F07400907FD5F00204A0907FEAE0FA
:1002FA00FF1207DF8B258A268927EA496011AE0299
:10030A00EE907FD4F0AF01EF907FD5F00204A09079
:10031A007FC47401F00204A0907FEAE0FF12079EF6
:10032A008B258A268927EA496011AE02EE907FD48E
:10033A00F0AF01EF907FD5F00204A0907FC4740162
:10034A00F00204A0907FC47401F00204A01205EA2E
:10035A000204A01205E20204A01205CC0204A012B3
:10036A0005D40204A01205F840030204A0907FE815
:10037A00E0247F60241460312402705BA200E4331D
:10038A00FF25E0FFA202E4334F907F00F0E4A3F0E0
:10039A00907FB57402F00204A0E4907F00F0A3F00D
:1003AA00907FB57402F00204A0907FECE0F45480D0
:1003BA00FFC4540FFFE054072F25E024B4F582E46C
:1003CA00347FF583E054FD907F00F0E4A3F0907F42
:1003DA00B57402F00204A0907FC47401F00204A074
:1003EA001205FA40030204A0907FE8E024FE601C94
:1003FA00240260030204A0907FEAE0B40105C2006F
:10040A000204A0907FC47401F00204A0907FEAE085
:10041A00701F907FECE0F45480FFC4540FFFE05447
:10042A00072F25E024B4F582E4347FF583E4F080D5
:10043A0065907FC47401F0805D1205FC5058907F6E
:10044A00E8E024FE60172402704C907FEAE0B401D1
:10045A0004D2008041907FC47401F08039907FEA11
:10046A00E07020907FECE0F45480FFC4540FFFE06A
:10047A0054072F25E024B4F582E4347FF583740110
:10048A00F08013907FC47401F0800B1205FE5006B1
:0D049A00907FC47401F0907FB4E04402F044
:0104A7002232
:030033000204A81C
:0404A80053D8EF3204
:10010000120100010000004047052B100100010210
:10011000050109022000010103A0000904000002FA
:10012000FF000004070582024000000705020240AC
:1001300000000000040309042A03570061006C005A
:1001400074006500720020004F006E0065007900A9
:10015000200053006F006600740077006100720099
:1001600065001E034C006F006F00700062006100AC
:1001700063006B0044006500760069006300650061
:100180002E035300740061006E0064006100720071
:100190006400200043006F006E0066006900670085
:1001A000750072006100740069006F006E00260324
:1001B0005300740061006E0064006100720064000E
:1001C000200049006E007400650072006600610046
:1001D0006300650012033000360030003900300043
:0601E00030003400330082
:1004AC00907FDE7404F0907FDFF0907FDD7409F0B4
:1004BC00E4F513F514F515F516F511F512907FC941
:1004CC00F0907FB27404F0A374E3F0907FAFE0443B
:0704DC0002F0E054FBF022E6
:1004E300907FC8E020E15CA3E0752500F526E4FEDB
:1004F300FFC3EF9526EE9525503574C02FF582E4A2
:10050300347DF583E0FD0516E516AA157002051581
:10051300142400F582EA3409F583EDF0C3E515945C
:10052300404005E4F515F5160FBF00010E80C2E546
:10053300262512F512E5253511F511907FC9E0C383
:100543009526F0E51245116072907FB8E020E16BCB
:10055300851125851226D3E5269440E52594004090
:1005630006752500752640E4FEFFC3EF9526EE953C
:100573002550350514E514AC13700205131424003B
:10058300F582EC3409F583E0FD74002FF582E43441
:100593007EF583EDF0C3E51394404005E4F513F5D0
:1005A300140FBF00010E80C2C3E5129526F512E5B4
:0B05B300119525F511907FB9E526F0A9
:0105BE00221A
:0905BF00907FAFE04408F0D32264
:0205C800D3223C
:0205CA00D3223A
:0805CC00907FEAE0F517D3224D
:0E05D400907F00E517F0907FB57401F0D32200
:0805E200907FEAE0F510D3223E
:0E05EA00907F00E510F0907FB57401F0D322F1
:0205F800D3220C
:0205FA00D3220A
:0205FC00D32208
:0205FE00D32206
:10060000C0E0C083C082C085C084C086758600D229
:10061000015391EF907FAB7401F0D086D084D085E8
:07062000D082D083D0E0324C
:10062700C0E0C083C082C085C084C086758600E4F0
:10063700907FC4F05391EF907FAB7404F0D086D0D5
:0A06470084D085D082D083D0E03249
:10065100C0E0C083C082C085C084C0867586005357
:1006610091EF907FAB7402F0D086D084D085D08298
:05067100D083D0E0324F
:10067600C0E0C083C082C085C084C0867586005332
:1006860091EF907FAB7410F0D086D084D085D08265
:05069600D083D0E0322A
:01069B00322C
:10069C00C0E0C083C082C085C084C086758600D28D
:1006AC00045391EF907FAB7408F0D086D084D08542
:0706BC00D082D083D0E032B0
:0106C3003204
:0106C4003203
:0106C5003202
:0106C6003201
:0106C7003200
:0106C80032FF
:0106C90032FE
:0106CA0032FD
:0106CB0032FC
:0106CC0032FB
:0106CD0032FA
:0106CE0032F9
:0106CF0032F8
:0106D00032F7
:0106D10032F6
:0106D20032F5
:03004300020700B1
:1007000002060000020651000206270002069C00B5
:100710000206760002069B000206C3000206C40021
:100720000206C5000206C6000206C7000206C8008F
:100730000206C9000206CA000206CB000206CC006F
:100740000206CD000206CE000206CF000206D0004F
:080750000206D1000206D200EE
:1006D300907FD6E030E712E04401F07F147E0012F1
:0A06E300082E907FD6E054FEF022AE
:10075800907FD6E04480F04387010000000000222B
:10077900907FD6E054FBF0E04408F0300604E044F2
:1007890002F07FDC7E0512082E907FD6E054F7F048
:05079900E04404F02221
:02079E008F28A2
:1007A000E4F529752AFF752B01752C34AB2AAA2B89
:1007B000A92C90000112085EB4031DAF290529EF92
:1007C000B52801221208457E0029FFEE3AA90775D7
:0E07D0002AFFF52B892C80D47B007A0079005B
:0107DE0022F8
:1007DF00E4FE752AFF752B01752C12AB2AAA2BA9E3
:1007EF002C90000112085E6402702DAD060EEDB55F
:1007FF0007012290000212088B85F028F529622844
:10080F00E5286229E529622829FDE5283AA9057519
:0E081F002AFFF52B892C80C37B007A0079001C
:01082D0022A8
:10082E008E258F26E5261526AE25700215254E60DF
:07083E000512076880EE229D
:100768007400F58690FDA57C05A3E582458370F9A4
:01077800225E
:030000000206ED08
:0C06ED00787FE4F6D8FD75812C0201E650
:10084500BB010689828A83E0225002E722BBFE02B1
:09085500E32289828A83E49322E4
:10085E00BB010CE58229F582E5833AF583E022504F
:10086E0006E92582F8E622BBFE06E92582F8E22299
:0D087E00E58229F582E5833AF583E49322B3
:10088B00BB0110E58229F582E5833AF583E0F5F0AB
:10089B00A3E0225009E92582F886F008E622BBFE88
:1008AB000AE92582F8E2F5F008E222E5832AF583CE
:0808BB00E993F5F0A3E9932293
:1008C300EB9FF5F0EA9E42F0E99D42F0E89C45F08B
:0108D3002202
:00000001FF
