:1001E600D205C204D200C202C2011204ACD2E84354
:1001F600D820907FAB74FFF0907FA9F0907FAAF093
:100206005391EF907F95E044C0F0907FAFE04401BA
:10021600F0907FAEE0441DF0D2AF20014C75240073
:100226007523007522007521007F487E927D007C33
:1002360000AB24AA23A922A821C3120ACA5020204F
:10024600011D7A0079007800E5242401F524EA35B9
:1002560023F523E93522F522E83521F52180CA2048
:1002660001B8D20612075880B130010512029AC2AF
:100276000130041A12051E50131206C620000790FC
:100286007FD6E020E7F31206AC120531C204120451
:03029600BD80D652
:010299002242
:10029A00907FE9E0700302036F1470030203EA24FB
:1002AA00FE700302044324FB700302036914700303
:1002BA0002036314700302035714700302035D24DC
:1002CA0005600302049512053B40030204A0907FD7
:1002DA00EBE024FE601614603F24027067740190FC
:1002EA007FD4F07400907FD5F00204A0907FEAE0FA
:1002FA00FF1209008B258A268927EA496011AE0276
:10030A00EE907FD4F0AF01EF907FD5F00204A09079
:10031A007FC47401F00204A0907FEAE0FF1208BFD4
:10032A008B258A268927EA496011AE02EE907FD48E
:10033A00F0AF01EF907FD5F00204A0907FC4740162
:10034A00F00204A0907FC47401F00204A012055BBD
:10035A000204A01205530204A012053D0204A012D1
:10036A0005450204A012056940030204A0907FE833
:10037A00E0247F60241460312402705BA200E4331D
:10038A00FF25E0FFA202E4334F907F00F0E4A3F0E0
:10039A00907FB57402F00204A0E4907F00F0A3F00D
:1003AA00907FB57402F00204A0907FECE0F45480D0
:1003BA00FFC4540FFFE054072F25E024B4F582E46C
:1003CA00347FF583E054FD907F00F0E4A3F0907F42
:1003DA00B57402F00204A0907FC47401F00204A074
:1003EA0012059340030204A0907FE8E024FE601CFB
:1003FA00240260030204A0907FEAE0B40105C2006F
:10040A000204A0907FC47401F00204A0907FEAE085
:10041A00701F907FECE0F45480FFC4540FFFE05447
:10042A00072F25E024B4F582E4347FF583E4F080D5
:10043A0065907FC47401F0805D1205955058907FD5
:10044A00E8E024FE60172402704C907FEAE0B401D1
:10045A0004D2008041907FC47401F08039907FEA11
:10046A00E07020907FECE0F45480FFC4540FFFE06A
:10047A0054072F25E024B4F582E4347FF583740110
:10048A00F08013907FC47401F0800B1205BD5006F2
:0D049A00907FC47401F0907FB4E04402F044
:0104A7002232
:030033000204A81C
:0404A80053D8EF3204
:10010000120100010000004047052D10010001020E
:10011000050109021C00010103800009040000011F
:10012000FF0000040308090705820304000A000019
:10013000040309042A03570061006C007400650081
:10014000720020004F006E0065007900200053000F
:100150006F00660074007700610072006500220382
:1001600049006E0074006500720072007500700036
:10017000740020004400650076006900630065009B
:100180002E035300740061006E0064006100720071
:100190006400200043006F006E0066006900670085
:1001A000750072006100740069006F006E00260324
:1001B0005300740061006E0064006100720064000E
:1001C000200049006E007400650072006600610046
:1001D0006300650012033000360030003900300043
:0601E00030003400340081
:10069200501802C0F9A4B0999282F880988883C653
:0906A200A1868E0112000110FF77
:1004AC00907FDE7404F01206E7E4FF120509C20027
:0104BC00221D
:1004BD007F207D017A187B0012094F901800E0FF14
:0F04CD0065108F1030E008E51030E0031204DDF9
:0104DC0022FD
:1004DD00907FB8E020E1240512E512D39409400382
:1004ED00E4F512AF12120509907E00E512F0E4A3B7
:0C04FD00F0A3F0A3F0907FB97404F0228B
:10050900AE077F217D0174022EF582E43418AB8297
:05051900FA12096B223B
:10051E00901801747FF07F217D017A187B011209FA
:02052E006BD38D
:0105300022A8
:0A053100E4F512AF12120509D322FF
:02053B00D322C9
:08053D00907FEAE0F513D322E0
:0E054500907F00E513F0907FB57401F0D32293
:08055300907FEAE0F511D322CC
:0E055B00907F00E511F0907FB57401F0D3227F
:0C056900907FE8E064817020A3E0701C2B
:10057500E5147004F528800375280C907F00E528A4
:0C058500F0E4A3F0907FB57402F0C322F4
:02059100D32273
:02059300D32271
:10059500907FE8E06401701EA3E0701AA3E024FBDD
:1005A500600C24037010E4F514120531C322751490
:0805B5000312051EC322D3222C
:0205BD00D32247
:1005BF00C0E0C083C082C085C084C086758600D26B
:1005CF00015391EF907FAB7401F0D086D084D0852A
:0705DF00D082D083D0E0328E
:1005E600C0E0C083C082C085C084C086758600E432
:1005F600907FC4F05391EF907FAB7404F0D086D017
:0A06060084D085D082D083D0E0328A
:10061000C0E0C083C082C085C084C0867586005398
:1006200091EF907FAB7402F0D086D084D085D082D9
:05063000D083D0E03290
:10063500C0E0C083C082C085C084C0867586005373
:1006450091EF907FAB7410F0D086D084D085D082A6
:05065500D083D0E0326B
:01065A00326D
:10065B00C0E0C083C082C085C084C086758600D2CE
:10066B00045391EF907FAB7408F0D086D084D08583
:07067B00D082D083D0E032F1
:010682003245
:010683003244
:010684003243
:010685003242
:010686003241
:010687003240
:01068800323F
:01068900323E
:01068A00323D
:01068B00323C
:01068C00323B
:01068D00323A
:01068E003239
:01068F003238
:010690003237
:010691003236
:03004300020700B1
:100700000205BF00020610000205E60002065B00BB
:100710000206350002065A00020682000206830025
:100720000206840002068500020686000206870093
:10073000020688000206890002068A0002068B0073
:1007400002068C0002068D0002068E0002068F0053
:08075000020690000206910070
:1006AC00907FD6E030E712E04401F07F147E001218
:0A06BC000987907FD6E054FEF0227B
:1006C600907FD6E04480F0438701000000000022BE
:10075800907FD6E054FBF0E04408F0300604E04413
:1007680002F07FDC7E05120987907FD6E054F7F00F
:05077800E04404F02242
:0806E700E4F51AD2E9D2AF22BA
:10077D00A907E51A7023907FA5E04480F0E925E0F4
:10078D00907FA6F08D15AF03A9077516018A1789FD
:0B079D0018E4F519751A01D322C322DD
:1007A800A907E51A7025907FA5E04480F0E925E0C7
:1007B8004401907FA6F08D15AF03A9077516018A2D
:0D07C800178918E4F519751A03D322C3220E
:03004B000207D5D4
:1007D500C0E0C083C082C085C084C086758600C065
:1007E500D0C000C001C002C003C006C007907FA5ED
:1007F500E030E206751A060208A1907FA5E020E127
:100805000CE51A64026006751A070208A1AF1AEF13
:1008150024FE604814602C24FE60772404600302E3
:1008250008A1AB16AA17A918AF1905198F827583E8
:1008350000120A43907FA6F0E5196515705E751ADA
:10084500058059907FA6E0AB16AA17A918AE198E98
:1008550082758300120A70751A028040E51524FE20
:10086500B51907907FA5E04420F0E51514B5190AE0
:10087500907FA5E04440F0E4F51A907FA6E0AB1622
:10088500AA17A918AE198E82758300120A70051968
:10089500800A907FA5E04440F0E4F51A5391DFD03B
:1008A50007D006D003D002D001D000D0D0D086D05A
:0A08B50084D085D082D083D0E032D9
:0208BF008F2880
:1008C100E4F529752AFF752B01752C30AB2AAA2B6B
:1008D100A92C900001120A43B4031DAF290529EF89
:1008E100B5280122120A2A7E0029FFEE3AA90775CE
:0E08F1002AFFF52B892C80D47B007A00790039
:0108FF0022D6
:10090000E4FE752AFF752B01752C12AB2AAA2BA9C0
:100910002C900001120A436402702DAD060EEDB555
:10092000070122900002120A9285F028F529622818
:10093000E5286229E529622829FDE5283AA90575F7
:0E0940002AFFF52B892C80C37B007A007900FA
:01094E002286
:10094F001207A8E51A24FA600E146006240770F344
:0C095F00D322E4F51AD322E4F51AD322C7
:10096B0012077DE51A24FA600E146006240770F353
:0C097B00D322E4F51AD322E4F51AD322AB
:100987008E258F26E5261526AE25700215254E6085
:07099700051206D680EE22D6
:1006D6007400F58690FDA57C05A3E582458370F937
:0106E60022F1
:0300000002099E54
:0C099E00787FE4F6D8FD75812C0209E595
:100A2A00BB010689828A83E0225002E722BBFE02CA
:090A3A00E32289828A83E49322FD
:100A4300BB010CE58229F582E5833AF583E0225068
:100A530006E92582F8E622BBFE06E92582F8E222B2
:0D0A6300E58229F582E5833AF583E49322CC
:100A7000F8BB010DE58229F582E5833AF583E8F0BC
:100A8000225006E92582C8F622BBFE05E92582C868
:020A9000F22250
:100A9200BB0110E58229F582E5833AF583E0F5F0A2
:100AA200A3E0225009E92582F886F008E622BBFE7F
:100AB2000AE92582F8E2F5F008E222E5832AF583C5
:080AC200E993F5F0A3E993228A
:100ACA00EB9FF5F0EA9E42F0E99D42F0E89C45F082
:010ADA0022F9
:1009AA000201E6E493A3F8E493A34003F68001F27C
:1009BA0008DFF48029E493A3F85407240CC8C3334E
:1009CA00C4540F4420C8834004F456800146F6DF1D
:1009DA00E4800B0102040810204080900692E47E15
:1009EA00019360BCA3FF543F30E509541FFEE49312
:1009FA00A360010ECF54C025E060A840B8E493A3D9
:100A0A00FAE493A3F8E493A3C8C582C8CAC583CA03
:100A1A00F0A3C8C582C8CAC583CADFE9DEE780BEBB
:0106AB00004E
:00000001FF
