:10020E00D205C204D200C202C2011204D4D2E84303
:10021E00D820907FAB74FFF0907FA9F0907FAAF06A
:10022E005391EF907F95E044C0F0907FAFE0440192
:10023E00F0907FAEE0441DF0D2AF20014C75170058
:10024E007516007515007514007F487E927D007C32
:10025E0000AB17AA16A915A814C312082550202002
:10026E00011D7A0079007800E5172401F517EA35AB
:10027E0016F516E93515F515E83514F51480CA206E
:10028E0001B8D20612066380B13001051202C2C255
:10029E000130041A1204E450131206422000079093
:1002AE007FD6E020E7F31206281204E6C2041204F9
:0302BE00E380D604
:0102C100221A
:1002C200907FE9E070030203971470030204122482
:1002D200FE700302046B24FB70030203911470038B
:1002E20002038B14700302037F147003020385243C
:1002F2000560030204BD1204E840030204C8907FB3
:10030200EBE024FE601614603F24027067740190D3
:100312007FD4F07400907FD5F00204C8907FEAE0A9
:10032200FF1207588B188A19891AEA496011AE021E
:10033200EE907FD4F0AF01EF907FD5F00204C89029
:100342007FC47401F00204C8907FEAE0FF120688BD
:100352008B188A19891AEA496011AE02EE907FD48D
:10036200F0AF01EF907FD5F00204C8907FC4740112
:10037200F00204C8907FC47401F00204C812050898
:100382000204C81205000204C81204EA0204C812D8
:1003920004F20204C812051640030204C8907FE862
:1003A200E0247F60241460312402705BA200E433F5
:1003B200FF25E0FFA202E4334F907F00F0E4A3F0B8
:1003C200907FB57402F00204C8E4907F00F0A3F0BD
:1003D200907FB57402F00204C8907FECE0F4548080
:1003E200FFC4540FFFE054072F25E024B4F582E444
:1003F200347FF583E054FD907F00F0E4A3F0907F1A
:10040200B57402F00204C8907FC47401F00204C8FB
:1004120012051840030204C8907FE8E024FE601C25
:10042200240260030204C8907FEAE0B40105C2001E
:100432000204C8907FC47401F00204C8907FEAE00D
:10044200701F907FECE0F45480FFC4540FFFE0541F
:10045200072F25E024B4F582E4347FF583E4F080AD
:1004620065907FC47401F0805D12051A5058907F28
:10047200E8E024FE60172402704C907FEAE0B401A9
:1004820004D2008041907FC47401F08039907FEAE9
:10049200E07020907FECE0F45480FFC4540FFFE042
:1004A20054072F25E024B4F582E4347FF5837401E8
:1004B200F08013907FC47401F0800B12051C50066B
:0D04C200907FC47401F0907FB4E04402F01C
:0104CF00220A
:030033000204D0F4
:0404D00053D8EF32DC
:10010000120100010000004047053010010001020B
:10011000050109022200010103A0000904000000FA
:10012000FF0000040904000101FF00000607058824
:10013000010001010000040309042A0357006100C3
:100140006C0074006500720020004F006E006500B6
:100150007900200053006F00660074007700610092
:10016000720065001C035500730062006900730093
:100170006F002000440065007600690063006500A0
:100180002E035300740061006E0064006100720071
:100190006400200043006F006E0066006900670085
:1001A000750072006100740069006F006E00260324
:1001B0005300740061006E0064006100720064000E
:1001C000200049006E007400650072006600610046
:1001D0006300650012033000360030003900300043
:1001E000300034003800280341006C0074006500C2
:1001F00072006E00610074006500200049006E000E
:0E020000740065007200660061006300650016
:0F04D400907FAE741FF0751100751210D20022C8
:0104E30022F6
:0204E400D32221
:0204E600D3221F
:0204E800D3221D
:0804EA00907FEAE0F513D32234
:0E04F200907F00E513F0907FB57401F0D322E7
:08050000907FEAE0F510D32220
:0E050800907F00E510F0907FB57401F0D322D3
:02051600D322EE
:02051800D322EC
:02051A00D322EA
:10051C00907FEAE0751100F512A3E0FEE4EE4211C3
:02052C00C322E8
:10052E00C0E0C083C082C085C084C086758600D2FC
:10053E00015391EF907FAB7401F0D086D084D085BB
:07054E00D082D083D0E0321F
:10055500C0E0C083C082C085C084C086758600E4C3
:10056500907FC4F05391EF907FAB7404F0D086D0A8
:0A05750084D085D082D083D0E0321C
:10057F00C0E0C083C082C085C084C086758600C0BD
:05058F00D0C006C0070A
:10059400E4FFFEC3EF9512EE9511500F907FD8E063
:1005A400907F68F00FBF00010E80E85391EF907FB9
:0405B400AB7402F032
:1005B800D007D006D0D0D086D084D085D082D08342
:0305C800D0E0324E
:1005CB00C0E0C083C082C085C084C08675860053DE
:1005DB0091EF907FAB7410F0D086D084D085D08211
:0505EB00D083D0E032D6
:0105F00032D8
:1005F100C0E0C083C082C085C084C086758600D239
:10060100045391EF907FAB7408F0D086D084D085ED
:07061100D082D083D0E0325B
:0106180032AF
:0106190032AE
:01061A0032AD
:01061B0032AC
:01061C0032AB
:01061D0032AA
:01061E0032A9
:01061F0032A8
:0106200032A7
:0106210032A6
:0106220032A5
:0106230032A4
:0106240032A3
:0106250032A2
:0106260032A1
:0106270032A0
:03004300020700B1
:1007000002052E0002057F00020555000205F100DA
:100710000205CB000205F0000206180002061900CF
:1007200002061A0002061B0002061C0002061D003B
:1007300002061E0002061F0002062000020621001B
:1007400002062200020623000206240002062500FB
:08075000020626000206270044
:10062800907FD6E030E712E04401F07F147E00129C
:0A06380006C9907FD6E054FEF022C0
:10064200907FD6E04480F043870100000000002242
:10066300907FD6E054FBF0E04408F0300604E04409
:1006730002F07FDC7E051206C9907FD6E054F7F0C6
:05068300E04404F02238
:020688008F1BC6
:10068A00E4F51C751DFF751E01751F36AB1DAA1EEC
:10069A00A91F9000011207C0B4031DAF1C051CEF6F
:1006AA00B51B01221207A77E0029FFEE3AA907759A
:0E06BA001DFFF51E891F80D47B007A00790099
:0106C800220F
:10075800E4FE751DFF751E01751F12AB1DAA1EA9AB
:100768001F9000011207C06402702DAD060EEDB592
:100778000701229000021207ED85F01BF51C621B91
:10078800E51B621CE51C621B29FDE51B3AA90575E2
:0E0798001DFFF51E891F80C37B007A007900CB
:0107A6002230
:1006C9008E188F19E5191519AE18700215184E6094
:0706D9000512065280EE221B
:100652007400F58690FDA57C05A3E582458370F9BB
:010662002275
:030000000206E015
:0C06E000787FE4F6D8FD75812002020E40
:1007A700BB010689828A83E0225002E722BBFE0250
:0907B700E32289828A83E4932283
:1007C000BB010CE58229F582E5833AF583E02250EE
:1007D00006E92582F8E622BBFE06E92582F8E22238
:0D07E000E58229F582E5833AF583E4932252
:1007ED00BB0110E58229F582E5833AF583E0F5F04A
:1007FD00A3E0225009E92582F886F008E622BBFE27
:10080D000AE92582F8E2F5F008E222E5832AF5836C
:08081D00E993F5F0A3E9932231
:10082500EB9FF5F0EA9E42F0E99D42F0E89C45F029
:0108350022A0
:00000001FF
