:1001DD00D205C204D200C202C2011204A3D2E84366
:1001ED00D820907FAB74FFF0907FA9F0907FAAF09C
:1001FD005391EF907F95E044C0F0907FAFE04401C4
:10020D00F0907FAEE0441DF0D2AF20014C7515008B
:10021D007514007513007512007F487E927D007C69
:10022D0000AB15AA14A913A812C31207C35020209E
:10023D00011D7A0079007800E5152401F515EA35E0
:10024D0014F514E93513F513E83512F51280CA20AB
:10025D0001B8D20612067980B1300105120291C2A1
:10026D000130041A1204CD501312065820000790C5
:10027D007FD6E020E7F31205DA1204CFC204120490
:03028D00C180D657
:01029000224B
:10029100907FE9E070030203661470030203E12416
:1002A100FE700302043A24FB70030203601470031E
:1002B10002035A14700302034E1470030203542400
:1002C10005600302048C1204D14003020497907F5D
:1002D100EBE024FE601614603F2402706774019005
:1002E1007FD4F07400907FD5F0020497907FEAE00C
:1002F100FF1206DF8B168A178918EA496011AE02D0
:10030100EE907FD4F0AF01EF907FD5F0020497908B
:100311007FC47401F0020497907FEAE0FF12069E09
:100321008B168A178918EA496011AE02EE907FD4C4
:10033100F0AF01EF907FD5F0020497907FC4740174
:10034100F0020497907FC47401F00204971204F143
:100351000204971204E90204971204D302049712CB
:1003610004DB0204971204FF4003020497907FE824
:10037100E0247F60241460312402705BA200E43326
:10038100FF25E0FFA202E4334F907F00F0E4A3F0E9
:10039100907FB57402F0020497E4907F00F0A3F01F
:1003A100907FB57402F0020497907FECE0F45480E2
:1003B100FFC4540FFFE054072F25E024B4F582E475
:1003C100347FF583E054FD907F00F0E4A3F0907F4B
:1003D100B57402F0020497907FC47401F00204978F
:1003E1001205014003020497907FE8E024FE601C9F
:1003F10024026003020497907FEAE0B40105C20081
:10040100020497907FC47401F0020497907FEAE0A0
:10041100701F907FECE0F45480FFC4540FFFE05450
:10042100072F25E024B4F582E4347FF583E4F080DE
:1004310065907FC47401F0805D1205035058907F70
:10044100E8E024FE60172402704C907FEAE0B401DA
:1004510004D2008041907FC47401F08039907FEA1A
:10046100E07020907FECE0F45480FFC4540FFFE073
:1004710054072F25E024B4F582E4347FF583740119
:10048100F08013907FC47401F0800B1205055006B3
:0D049100907FC47401F0907FB4E04402F04D
:01049E00223B
:0300330002049F25
:04049F0053D8EF320D
:10010000120100010000004047052A100100010211
:10011000050109021900010103A000090400000102
:10012000FF000004070582024000000000040309EC
:10013000042A03570061006C0074006500720020FF
:10014000004F006E0065007900200053006F0066CC
:1001500000740077006100720065001C0341006EAE
:10016000007300770065007200200044006500768F
:10017000006900630065002E035300740061006E87
:10018000006400610072006400200043006F006E94
:100190000066006900670075007200610074006904
:1001A000006F006E0026035300740061006E00644F
:1001B00000610072006400200049006E0074006558
:1001C00000720066006100630065001203300036B3
:0D01D00000300039003000300034003200F3
:1004A300907FDE7404F0E4907FDDF0FF7F40907E68
:0D04B30000742AF0A3DFFC907FB97440F0C4
:0104C0002219
:0C04C100907FB8E020E104A37440F0221A
:0204CD00D32238
:0204CF00D32236
:0204D100D32234
:0804D300907FEAE0F511D3224D
:0E04DB00907F00E511F0907FB57401F0D32200
:0804E900907FEAE0F510D32238
:0E04F100907F00E510F0907FB57401F0D322EB
:0204FF00D32206
:02050100D32203
:02050300D32201
:02050500D322FF
:10050700C0E0C083C082C085C084C086758600D223
:10051700015391EF907FAB7401F0D086D084D085E2
:07052700D082D083D0E03246
:10052E00C0E0C083C082C085C084C086758600E4EA
:10053E00907FC4F05391EF907FAB7404F0D086D0CF
:0A054E0084D085D082D083D0E03243
:10055800C0E0C083C082C085C084C0867586005351
:1005680091EF907FAB7402F0D086D084D085D08292
:05057800D083D0E03249
:10057D00C0E0C083C082C085C084C086758600532C
:10058D0091EF907FAB7410F0D086D084D085D0825F
:05059D00D083D0E03224
:0105A2003226
:1005A300C0E0C083C082C085C084C086758600D287
:1005B300045391EF907FAB7408F0D086D084D0853C
:0705C300D082D083D0E032AA
:0105CA0032FE
:0105CB0032FD
:0105CC0032FC
:0105CD0032FB
:0105CE0032FA
:0105CF0032F9
:0105D00032F8
:0105D10032F7
:0105D20032F6
:0105D30032F5
:0105D40032F4
:0105D50032F3
:0105D60032F2
:0105D70032F1
:0105D80032F0
:0105D90032EF
:03004300020600B2
:10060000020507000205580002052E000205A3009E
:1006100002057D000205A2000205CA000205CB000A
:100620000205CC000205CD000205CE000205CF0078
:100630000205D0000205D1000205D2000205D30058
:100640000205D4000205D5000205D6000205D70038
:080650000205D8000205D900E3
:1005DA00907FD6E030E712E04401F07F147E0012EB
:0A05EA00072E907FD6E054FEF022A9
:10065800907FD6E04480F04387010000000000222C
:10067900907FD6E054FBF0E04408F0300604E044F3
:1006890002F07FDC7E0512072E907FD6E054F7F04A
:05069900E04404F02222
:02069E008F19B2
:1006A000E4F51A751BFF751C01751D2DAB1BAA1CEB
:1006B000A91D90000112075EB4031DAF1A051AEFC1
:1006C000B51901221207457E0029FFEE3AA90775E8
:0E06D0001BFFF51C891D80D47B007A00790089
:0106DE0022F9
:1006DF00E4FE751BFF751C01751D12AB1BAA1CA92F
:1006EF001D90000112075E6402702DAD060EEDB570
:1006FF0007012290000212078B85F019F51A621973
:10070F00E519621AE51A621929FDE5193AA9057565
:0E071F001BFFF51C891D80C37B007A0079004A
:01072D0022A9
:10072E008E168F17E5171517AE16700215164E603A
:07073E000512066880EE229F
:100668007400F58690FDA57C05A3E582458370F9A5
:01067800225F
:030000000205F402
:0C05F400787FE4F6D8FD7581200201DD5F
:10074500BB010689828A83E0225002E722BBFE02B2
:09075500E32289828A83E49322E5
:10075E00BB010CE58229F582E5833AF583E0225050
:10076E0006E92582F8E622BBFE06E92582F8E2229A
:0D077E00E58229F582E5833AF583E49322B4
:10078B00BB0110E58229F582E5833AF583E0F5F0AC
:10079B00A3E0225009E92582F886F008E622BBFE89
:1007AB000AE92582F8E2F5F008E222E5832AF583CF
:0807BB00E993F5F0A3E9932294
:1007C300EB9FF5F0EA9E42F0E99D42F0E89C45F08C
:0107D3002203
:00000001FF
